{
  "_format": "hh-sol-artifact-1",
  "contractName": "InternalStorage",
  "sourceName": "contracts/InternalStorage.sol",
  "abi": [
    {
      "anonymous": false,
      "inputs": [
        {
          "indexed": true,
          "internalType": "address",
          "name": "previousOwner",
          "type": "address"
        },
        {
          "indexed": true,
          "internalType": "address",
          "name": "newOwner",
          "type": "address"
        }
      ],
      "name": "OwnershipTransferred",
      "type": "event"
    },
    {
      "inputs": [
        {
          "internalType": "address",
          "name": "_userAddress",
          "type": "address"
        },
        {
          "internalType": "address",
          "name": "_contractAddress",
          "type": "address"
        }
      ],
      "name": "addNftContract",
      "outputs": [],
      "stateMutability": "nonpayable",
      "type": "function"
    },
    {
      "inputs": [
        {
          "internalType": "uint256",
          "name": "_ticketId",
          "type": "uint256"
        },
        {
          "internalType": "address",
          "name": "_nftProxy",
          "type": "address"
        }
      ],
      "name": "addTicket",
      "outputs": [],
      "stateMutability": "nonpayable",
      "type": "function"
    },
    {
      "inputs": [
        {
          "internalType": "uint256",
          "name": "_id",
          "type": "uint256"
        }
      ],
      "name": "getNFTid",
      "outputs": [
        {
          "internalType": "uint256",
          "name": "",
          "type": "uint256"
        }
      ],
      "stateMutability": "view",
      "type": "function"
    },
    {
      "inputs": [
        {
          "internalType": "uint256",
          "name": "_id",
          "type": "uint256"
        }
      ],
      "name": "getNFTproxy",
      "outputs": [
        {
          "internalType": "address",
          "name": "",
          "type": "address"
        }
      ],
      "stateMutability": "view",
      "type": "function"
    },
    {
      "inputs": [],
      "name": "getTicketsCount",
      "outputs": [
        {
          "internalType": "uint256",
          "name": "",
          "type": "uint256"
        }
      ],
      "stateMutability": "view",
      "type": "function"
    },
    {
      "inputs": [
        {
          "internalType": "address",
          "name": "",
          "type": "address"
        }
      ],
      "name": "nftContractsBook",
      "outputs": [
        {
          "internalType": "address",
          "name": "",
          "type": "address"
        }
      ],
      "stateMutability": "view",
      "type": "function"
    },
    {
      "inputs": [],
      "name": "owner",
      "outputs": [
        {
          "internalType": "address",
          "name": "",
          "type": "address"
        }
      ],
      "stateMutability": "view",
      "type": "function"
    },
    {
      "inputs": [],
      "name": "renounceOwnership",
      "outputs": [],
      "stateMutability": "nonpayable",
      "type": "function"
    },
    {
      "inputs": [
        {
          "internalType": "uint256",
          "name": "",
          "type": "uint256"
        }
      ],
      "name": "tickets",
      "outputs": [
        {
          "internalType": "uint256",
          "name": "ticketId",
          "type": "uint256"
        },
        {
          "internalType": "address",
          "name": "nftProxy",
          "type": "address"
        }
      ],
      "stateMutability": "view",
      "type": "function"
    },
    {
      "inputs": [],
      "name": "ticketsCount",
      "outputs": [
        {
          "internalType": "uint256",
          "name": "_value",
          "type": "uint256"
        }
      ],
      "stateMutability": "view",
      "type": "function"
    },
    {
      "inputs": [
        {
          "internalType": "address",
          "name": "newOwner",
          "type": "address"
        }
      ],
      "name": "transferOwnership",
      "outputs": [],
      "stateMutability": "nonpayable",
      "type": "function"
    }
  ],
  "bytecode": "0x608060405234801561001057600080fd5b5061002d61002261003260201b60201c565b61003a60201b60201c565b6100fe565b600033905090565b60008060009054906101000a900473ffffffffffffffffffffffffffffffffffffffff169050816000806101000a81548173ffffffffffffffffffffffffffffffffffffffff021916908373ffffffffffffffffffffffffffffffffffffffff1602179055508173ffffffffffffffffffffffffffffffffffffffff168173ffffffffffffffffffffffffffffffffffffffff167f8be0079c531659141344cd1fd0a4f28419497f9722a3daafe3b4186f6b6457e060405160405180910390a35050565b610af78061010d6000396000f3fe608060405234801561001057600080fd5b50600436106100a95760003560e01c80638da5cb5b116100715780638da5cb5b14610155578063ac66632914610173578063d3e260f6146101a3578063eccb6bd0146101bf578063f277ddbb146101db578063f2fde38b1461020b576100a9565b8063080b2a86146100ae5780631644e7af146100cc5780634376c2f1146100ea57806350b447121461011a578063715018a61461014b575b600080fd5b6100b6610227565b6040516100c3919061098a565b60405180910390f35b6100d4610238565b6040516100e1919061098a565b60405180910390f35b61010460048036038101906100ff9190610866565b610244565b604051610111919061098a565b60405180910390f35b610134600480360381019061012f9190610866565b610264565b6040516101429291906109a5565b60405180910390f35b6101536102a8565b005b61015d610330565b60405161016a919061092f565b60405180910390f35b61018d60048036038101906101889190610801565b610359565b60405161019a919061092f565b60405180910390f35b6101bd60048036038101906101b8919061082a565b61038c565b005b6101d960048036038101906101d4919061088f565b61048a565b005b6101f560048036038101906101f09190610866565b6105af565b604051610202919061092f565b60405180910390f35b61022560048036038101906102209190610801565b6105ef565b005b600061023360016106e7565b905090565b60018060000154905081565b600060036000838152602001908152602001600020600001549050919050565b60036020528060005260406000206000915090508060000154908060010160009054906101000a900473ffffffffffffffffffffffffffffffffffffffff16905082565b6102b06106f5565b73ffffffffffffffffffffffffffffffffffffffff166102ce610330565b73ffffffffffffffffffffffffffffffffffffffff1614610324576040517f08c379a000000000000000000000000000000000000000000000000000000000815260040161031b9061096a565b60405180910390fd5b61032e60006106fd565b565b60008060009054906101000a900473ffffffffffffffffffffffffffffffffffffffff16905090565b60026020528060005260406000206000915054906101000a900473ffffffffffffffffffffffffffffffffffffffff1681565b6103946106f5565b73ffffffffffffffffffffffffffffffffffffffff166103b2610330565b73ffffffffffffffffffffffffffffffffffffffff1614610408576040517f08c379a00000000000000000000000000000000000000000000000000000000081526004016103ff9061096a565b60405180910390fd5b80600260008473ffffffffffffffffffffffffffffffffffffffff1673ffffffffffffffffffffffffffffffffffffffff16815260200190815260200160002060006101000a81548173ffffffffffffffffffffffffffffffffffffffff021916908373ffffffffffffffffffffffffffffffffffffffff1602179055505050565b6104926106f5565b73ffffffffffffffffffffffffffffffffffffffff166104b0610330565b73ffffffffffffffffffffffffffffffffffffffff1614610506576040517f08c379a00000000000000000000000000000000000000000000000000000000081526004016104fd9061096a565b60405180910390fd5b60405180604001604052808381526020018273ffffffffffffffffffffffffffffffffffffffff168152506003600061053f60016106e7565b81526020019081526020016000206000820151816000015560208201518160010160006101000a81548173ffffffffffffffffffffffffffffffffffffffff021916908373ffffffffffffffffffffffffffffffffffffffff1602179055509050506105ab60016107c1565b5050565b60006003600083815260200190815260200160002060010160009054906101000a900473ffffffffffffffffffffffffffffffffffffffff169050919050565b6105f76106f5565b73ffffffffffffffffffffffffffffffffffffffff16610615610330565b73ffffffffffffffffffffffffffffffffffffffff161461066b576040517f08c379a00000000000000000000000000000000000000000000000000000000081526004016106629061096a565b60405180910390fd5b600073ffffffffffffffffffffffffffffffffffffffff168173ffffffffffffffffffffffffffffffffffffffff1614156106db576040517f08c379a00000000000000000000000000000000000000000000000000000000081526004016106d29061094a565b60405180910390fd5b6106e4816106fd565b50565b600081600001549050919050565b600033905090565b60008060009054906101000a900473ffffffffffffffffffffffffffffffffffffffff169050816000806101000a81548173ffffffffffffffffffffffffffffffffffffffff021916908373ffffffffffffffffffffffffffffffffffffffff1602179055508173ffffffffffffffffffffffffffffffffffffffff168173ffffffffffffffffffffffffffffffffffffffff167f8be0079c531659141344cd1fd0a4f28419497f9722a3daafe3b4186f6b6457e060405160405180910390a35050565b6001816000016000828254019250508190555050565b6000813590506107e681610a93565b92915050565b6000813590506107fb81610aaa565b92915050565b60006020828403121561081357600080fd5b6000610821848285016107d7565b91505092915050565b6000806040838503121561083d57600080fd5b600061084b858286016107d7565b925050602061085c858286016107d7565b9150509250929050565b60006020828403121561087857600080fd5b6000610886848285016107ec565b91505092915050565b600080604083850312156108a257600080fd5b60006108b0858286016107ec565b92505060206108c1858286016107d7565b9150509250929050565b6108d4816109df565b82525050565b60006108e76026836109ce565b91506108f282610a1b565b604082019050919050565b600061090a6020836109ce565b915061091582610a6a565b602082019050919050565b61092981610a11565b82525050565b600060208201905061094460008301846108cb565b92915050565b60006020820190508181036000830152610963816108da565b9050919050565b60006020820190508181036000830152610983816108fd565b9050919050565b600060208201905061099f6000830184610920565b92915050565b60006040820190506109ba6000830185610920565b6109c760208301846108cb565b9392505050565b600082825260208201905092915050565b60006109ea826109f1565b9050919050565b600073ffffffffffffffffffffffffffffffffffffffff82169050919050565b6000819050919050565b7f4f776e61626c653a206e6577206f776e657220697320746865207a65726f206160008201527f6464726573730000000000000000000000000000000000000000000000000000602082015250565b7f4f776e61626c653a2063616c6c6572206973206e6f7420746865206f776e6572600082015250565b610a9c816109df565b8114610aa757600080fd5b50565b610ab381610a11565b8114610abe57600080fd5b5056fea26469706673582212207de8fd1721ef0809f8e20667bdec3de3dc64f7671f6aee794eb7d93e54cc5c2464736f6c63430008040033",
  "linkReferences": {},
  "deployedLinkReferences": {}
}