{
  "_format": "hh-sol-artifact-1",
  "contractName": "NFTFactory",
  "sourceName": "contracts/NFTFactory.sol",
  "abi": [
    {
      "inputs": [],
      "stateMutability": "nonpayable",
      "type": "constructor"
    },
    {
      "anonymous": false,
      "inputs": [
        {
          "indexed": true,
          "internalType": "address",
          "name": "previousOwner",
          "type": "address"
        },
        {
          "indexed": true,
          "internalType": "address",
          "name": "newOwner",
          "type": "address"
        }
      ],
      "name": "OwnershipTransferred",
      "type": "event"
    },
    {
      "inputs": [
        {
          "internalType": "string",
          "name": "_name",
          "type": "string"
        },
        {
          "internalType": "string",
          "name": "_ticker",
          "type": "string"
        },
        {
          "internalType": "uint256",
          "name": "_salt",
          "type": "uint256"
        }
      ],
      "name": "create2NFTContract",
      "outputs": [
        {
          "internalType": "address",
          "name": "",
          "type": "address"
        }
      ],
      "stateMutability": "nonpayable",
      "type": "function"
    },
    {
      "inputs": [
        {
          "internalType": "string",
          "name": "_name",
          "type": "string"
        },
        {
          "internalType": "string",
          "name": "_ticker",
          "type": "string"
        }
      ],
      "name": "createNFTContract",
      "outputs": [
        {
          "internalType": "address",
          "name": "",
          "type": "address"
        }
      ],
      "stateMutability": "nonpayable",
      "type": "function"
    },
    {
      "inputs": [],
      "name": "owner",
      "outputs": [
        {
          "internalType": "address",
          "name": "",
          "type": "address"
        }
      ],
      "stateMutability": "view",
      "type": "function"
    },
    {
      "inputs": [],
      "name": "renounceOwnership",
      "outputs": [],
      "stateMutability": "nonpayable",
      "type": "function"
    },
    {
      "inputs": [
        {
          "internalType": "address",
          "name": "newOwner",
          "type": "address"
        }
      ],
      "name": "transferOwnership",
      "outputs": [],
      "stateMutability": "nonpayable",
      "type": "function"
    }
  ],
  "bytecode": "0x60a06040523480156200001157600080fd5b506200003262000026620000d260201b60201c565b620000da60201b60201c565b60405162000040906200019e565b604051809103906000f0801580156200005d573d6000803e3d6000fd5b506040516200006c90620001ac565b620000789190620001cb565b604051809103906000f08015801562000095573d6000803e3d6000fd5b5073ffffffffffffffffffffffffffffffffffffffff1660808173ffffffffffffffffffffffffffffffffffffffff1660601b815250506200021c565b600033905090565b60008060009054906101000a900473ffffffffffffffffffffffffffffffffffffffff169050816000806101000a81548173ffffffffffffffffffffffffffffffffffffffff021916908373ffffffffffffffffffffffffffffffffffffffff1602179055508173ffffffffffffffffffffffffffffffffffffffff168173ffffffffffffffffffffffffffffffffffffffff167f8be0079c531659141344cd1fd0a4f28419497f9722a3daafe3b4186f6b6457e060405160405180910390a35050565b6130da8062001f1583390190565b61150c8062004fef83390190565b620001c581620001e8565b82525050565b6000602082019050620001e26000830184620001ba565b92915050565b6000620001f582620001fc565b9050919050565b600073ffffffffffffffffffffffffffffffffffffffff82169050919050565b60805160601c611cd362000242600039600081816101a601526104cf0152611cd36000f3fe60806040523480156200001157600080fd5b50600436106200005e5760003560e01c806314d76ffc1462000063578063715018a614620000995780638da5cb5b14620000a5578063f2fde38b14620000c7578063fd63cefc14620000e7575b600080fd5b6200008160048036038101906200007b919062000758565b6200011d565b60405162000090919062000934565b60405180910390f35b620000a362000284565b005b620000af62000315565b604051620000be919062000934565b60405180910390f35b620000e56004803603810190620000df91906200072c565b6200033e565b005b620001056004803603810190620000ff9190620007cb565b62000442565b60405162000114919062000934565b60405180910390f35b600062000129620005b2565b73ffffffffffffffffffffffffffffffffffffffff166200014962000315565b73ffffffffffffffffffffffffffffffffffffffff1614620001a2576040517f08c379a00000000000000000000000000000000000000000000000000000000081526004016200019990620009e2565b60405180910390fd5b60007f0000000000000000000000000000000000000000000000000000000000000000634cd88b7660e01b8585604051602401620001e292919062000985565b604051602081830303815290604052907bffffffffffffffffffffffffffffffffffffffffffffffffffffffff19166020820180517bffffffffffffffffffffffffffffffffffffffffffffffffffffffff83818316178352505050506040516200024d906200067e565b6200025a92919062000951565b604051809103906000f08015801562000277573d6000803e3d6000fd5b5090508091505092915050565b6200028e620005b2565b73ffffffffffffffffffffffffffffffffffffffff16620002ae62000315565b73ffffffffffffffffffffffffffffffffffffffff161462000307576040517f08c379a0000000000000000000000000000000000000000000000000000000008152600401620002fe90620009e2565b60405180910390fd5b620003136000620005ba565b565b60008060009054906101000a900473ffffffffffffffffffffffffffffffffffffffff16905090565b62000348620005b2565b73ffffffffffffffffffffffffffffffffffffffff166200036862000315565b73ffffffffffffffffffffffffffffffffffffffff1614620003c1576040517f08c379a0000000000000000000000000000000000000000000000000000000008152600401620003b890620009e2565b60405180910390fd5b600073ffffffffffffffffffffffffffffffffffffffff168173ffffffffffffffffffffffffffffffffffffffff16141562000434576040517f08c379a00000000000000000000000000000000000000000000000000000000081526004016200042b90620009c0565b60405180910390fd5b6200043f81620005ba565b50565b60006200044e620005b2565b73ffffffffffffffffffffffffffffffffffffffff166200046e62000315565b73ffffffffffffffffffffffffffffffffffffffff1614620004c7576040517f08c379a0000000000000000000000000000000000000000000000000000000008152600401620004be90620009e2565b60405180910390fd5b60008260001b7f0000000000000000000000000000000000000000000000000000000000000000634cd88b7660e01b87876040516024016200050b92919062000985565b604051602081830303815290604052907bffffffffffffffffffffffffffffffffffffffffffffffffffffffff19166020820180517bffffffffffffffffffffffffffffffffffffffffffffffffffffffff838183161783525050505060405162000576906200067e565b6200058392919062000951565b8190604051809103906000f5905080158015620005a4573d6000803e3d6000fd5b509050809150509392505050565b600033905090565b60008060009054906101000a900473ffffffffffffffffffffffffffffffffffffffff169050816000806101000a81548173ffffffffffffffffffffffffffffffffffffffff021916908373ffffffffffffffffffffffffffffffffffffffff1602179055508173ffffffffffffffffffffffffffffffffffffffff168173ffffffffffffffffffffffffffffffffffffffff167f8be0079c531659141344cd1fd0a4f28419497f9722a3daafe3b4186f6b6457e060405160405180910390a35050565b61105d8062000c4183390190565b6000620006a36200069d8462000a2d565b62000a04565b905082815260208101848484011115620006bc57600080fd5b620006c984828562000ad9565b509392505050565b600081359050620006e28162000c0c565b92915050565b600082601f830112620006fa57600080fd5b81356200070c8482602086016200068c565b91505092915050565b600081359050620007268162000c26565b92915050565b6000602082840312156200073f57600080fd5b60006200074f84828501620006d1565b91505092915050565b600080604083850312156200076c57600080fd5b600083013567ffffffffffffffff8111156200078757600080fd5b6200079585828601620006e8565b925050602083013567ffffffffffffffff811115620007b357600080fd5b620007c185828601620006e8565b9150509250929050565b600080600060608486031215620007e157600080fd5b600084013567ffffffffffffffff811115620007fc57600080fd5b6200080a86828701620006e8565b935050602084013567ffffffffffffffff8111156200082857600080fd5b6200083686828701620006e8565b9250506040620008498682870162000715565b9150509250925092565b6200085e8162000a9b565b82525050565b6000620008718262000a63565b6200087d818562000a79565b93506200088f81856020860162000ae8565b6200089a8162000b83565b840191505092915050565b6000620008b28262000a6e565b620008be818562000a8a565b9350620008d081856020860162000ae8565b620008db8162000b83565b840191505092915050565b6000620008f560268362000a8a565b9150620009028262000b94565b604082019050919050565b60006200091c60208362000a8a565b9150620009298262000be3565b602082019050919050565b60006020820190506200094b600083018462000853565b92915050565b600060408201905062000968600083018562000853565b81810360208301526200097c818462000864565b90509392505050565b60006040820190508181036000830152620009a18185620008a5565b90508181036020830152620009b78184620008a5565b90509392505050565b60006020820190508181036000830152620009db81620008e6565b9050919050565b60006020820190508181036000830152620009fd816200090d565b9050919050565b600062000a1062000a23565b905062000a1e828262000b1e565b919050565b6000604051905090565b600067ffffffffffffffff82111562000a4b5762000a4a62000b54565b5b62000a568262000b83565b9050602081019050919050565b600081519050919050565b600081519050919050565b600082825260208201905092915050565b600082825260208201905092915050565b600062000aa88262000aaf565b9050919050565b600073ffffffffffffffffffffffffffffffffffffffff82169050919050565b6000819050919050565b82818337600083830152505050565b60005b8381101562000b0857808201518184015260208101905062000aeb565b8381111562000b18576000848401525b50505050565b62000b298262000b83565b810181811067ffffffffffffffff8211171562000b4b5762000b4a62000b54565b5b80604052505050565b7f4e487b7100000000000000000000000000000000000000000000000000000000600052604160045260246000fd5b6000601f19601f8301169050919050565b7f4f776e61626c653a206e6577206f776e657220697320746865207a65726f206160008201527f6464726573730000000000000000000000000000000000000000000000000000602082015250565b7f4f776e61626c653a2063616c6c6572206973206e6f7420746865206f776e6572600082015250565b62000c178162000a9b565b811462000c2357600080fd5b50565b62000c318162000acf565b811462000c3d57600080fd5b5056fe60806040526040516200105d3803806200105d8339818101604052810190620000299190620005f1565b60017fa3f0ad74e5423aebfd80d3ef4346578335a9a72aeaee59ff6cb3582b35133d5160001c6200005b91906200086c565b60001b7fa3f0ad74e5423aebfd80d3ef4346578335a9a72aeaee59ff6cb3582b35133d5060001b14620000b7577f4e487b7100000000000000000000000000000000000000000000000000000000600052600160045260246000fd5b620000cb82826000620000d360201b60201c565b505062000ac7565b620000e483620001da60201b60201c565b8273ffffffffffffffffffffffffffffffffffffffff167f1cf3b03a6cf19fa2baba4df148e9dcabedea7f8a5c07840e207e5c089be95d3e60405160405180910390a2600082511180620001355750805b15620001d557620001d38373ffffffffffffffffffffffffffffffffffffffff16635c60da1b6040518163ffffffff1660e01b815260040160206040518083038186803b1580156200018657600080fd5b505afa1580156200019b573d6000803e3d6000fd5b505050506040513d601f19601f82011682018060405250810190620001c19190620005c5565b836200038960201b620000371760201c565b505b505050565b620001f081620003bf60201b620000641760201c565b62000232576040517f08c379a0000000000000000000000000000000000000000000000000000000008152600401620002299062000775565b60405180910390fd5b620002c98173ffffffffffffffffffffffffffffffffffffffff16635c60da1b6040518163ffffffff1660e01b815260040160206040518083038186803b1580156200027d57600080fd5b505afa15801562000292573d6000803e3d6000fd5b505050506040513d601f19601f82011682018060405250810190620002b89190620005c5565b620003bf60201b620000641760201c565b6200030b576040517f08c379a00000000000000000000000000000000000000000000000000000000081526004016200030290620007b9565b60405180910390fd5b80620003457fa3f0ad74e5423aebfd80d3ef4346578335a9a72aeaee59ff6cb3582b35133d5060001b620003e260201b620000871760201c565b60000160006101000a81548173ffffffffffffffffffffffffffffffffffffffff021916908373ffffffffffffffffffffffffffffffffffffffff16021790555050565b6060620003b783836040518060600160405280602781526020016200103660279139620003ec60201b60201c565b905092915050565b6000808273ffffffffffffffffffffffffffffffffffffffff163b119050919050565b6000819050919050565b6060620003ff84620003bf60201b60201c565b62000441576040517f08c379a0000000000000000000000000000000000000000000000000000000008152600401620004389062000797565b60405180910390fd5b6000808573ffffffffffffffffffffffffffffffffffffffff16856040516200046b919062000738565b600060405180830381855af49150503d8060008114620004a8576040519150601f19603f3d011682016040523d82523d6000602084013e620004ad565b606091505b5091509150620004c5828286620004d060201b60201c565b925050509392505050565b60608315620004e25782905062000535565b600083511115620004f65782518084602001fd5b816040517f08c379a00000000000000000000000000000000000000000000000000000000081526004016200052c919062000751565b60405180910390fd5b9392505050565b6000620005536200054d8462000804565b620007db565b9050828152602081018484840111156200056c57600080fd5b62000579848285620008e5565b509392505050565b600081519050620005928162000aad565b92915050565b600082601f830112620005aa57600080fd5b8151620005bc8482602086016200053c565b91505092915050565b600060208284031215620005d857600080fd5b6000620005e88482850162000581565b91505092915050565b600080604083850312156200060557600080fd5b6000620006158582860162000581565b925050602083015167ffffffffffffffff8111156200063357600080fd5b620006418582860162000598565b9150509250929050565b600062000658826200083a565b62000664818562000850565b935062000676818560208601620008e5565b80840191505092915050565b60006200068f8262000845565b6200069b81856200085b565b9350620006ad818560208601620008e5565b620006b881620009af565b840191505092915050565b6000620006d26025836200085b565b9150620006df82620009c0565b604082019050919050565b6000620006f96026836200085b565b9150620007068262000a0f565b604082019050919050565b6000620007206030836200085b565b91506200072d8262000a5e565b604082019050919050565b60006200074682846200064b565b915081905092915050565b600060208201905081810360008301526200076d818462000682565b905092915050565b600060208201905081810360008301526200079081620006c3565b9050919050565b60006020820190508181036000830152620007b281620006ea565b9050919050565b60006020820190508181036000830152620007d48162000711565b9050919050565b6000620007e7620007fa565b9050620007f582826200091b565b919050565b6000604051905090565b600067ffffffffffffffff82111562000822576200082162000980565b5b6200082d82620009af565b9050602081019050919050565b600081519050919050565b600081519050919050565b600081905092915050565b600082825260208201905092915050565b60006200087982620008db565b91506200088683620008db565b9250828210156200089c576200089b62000951565b5b828203905092915050565b6000620008b482620008bb565b9050919050565b600073ffffffffffffffffffffffffffffffffffffffff82169050919050565b6000819050919050565b60005b8381101562000905578082015181840152602081019050620008e8565b8381111562000915576000848401525b50505050565b6200092682620009af565b810181811067ffffffffffffffff8211171562000948576200094762000980565b5b80604052505050565b7f4e487b7100000000000000000000000000000000000000000000000000000000600052601160045260246000fd5b7f4e487b7100000000000000000000000000000000000000000000000000000000600052604160045260246000fd5b6000601f19601f8301169050919050565b7f455243313936373a206e657720626561636f6e206973206e6f74206120636f6e60008201527f7472616374000000000000000000000000000000000000000000000000000000602082015250565b7f416464726573733a2064656c65676174652063616c6c20746f206e6f6e2d636f60008201527f6e74726163740000000000000000000000000000000000000000000000000000602082015250565b7f455243313936373a20626561636f6e20696d706c656d656e746174696f6e206960008201527f73206e6f74206120636f6e747261637400000000000000000000000000000000602082015250565b62000ab881620008a7565b811462000ac457600080fd5b50565b61055f8062000ad76000396000f3fe6080604052366100135761001161001d565b005b61001b61001d565b005b610025610091565b610035610030610093565b61011f565b565b606061005c838360405180606001604052806027815260200161050360279139610145565b905092915050565b6000808273ffffffffffffffffffffffffffffffffffffffff163b119050919050565b6000819050919050565b565b600061009d610212565b73ffffffffffffffffffffffffffffffffffffffff16635c60da1b6040518163ffffffff1660e01b815260040160206040518083038186803b1580156100e257600080fd5b505afa1580156100f6573d6000803e3d6000fd5b505050506040513d601f19601f8201168201806040525081019061011a91906102e5565b905090565b3660008037600080366000845af43d6000803e8060008114610140573d6000f35b3d6000fd5b606061015084610064565b61018f576040517f08c379a0000000000000000000000000000000000000000000000000000000008152600401610186906103d4565b60405180910390fd5b6000808573ffffffffffffffffffffffffffffffffffffffff16856040516101b7919061039b565b600060405180830381855af49150503d80600081146101f2576040519150601f19603f3d011682016040523d82523d6000602084013e6101f7565b606091505b5091509150610207828286610269565b925050509392505050565b60006102407fa3f0ad74e5423aebfd80d3ef4346578335a9a72aeaee59ff6cb3582b35133d5060001b610087565b60000160009054906101000a900473ffffffffffffffffffffffffffffffffffffffff16905090565b60608315610279578290506102c9565b60008351111561028c5782518084602001fd5b816040517f08c379a00000000000000000000000000000000000000000000000000000000081526004016102c091906103b2565b60405180910390fd5b9392505050565b6000815190506102df816104eb565b92915050565b6000602082840312156102f757600080fd5b6000610305848285016102d0565b91505092915050565b6000610319826103f4565b610323818561040a565b9350610333818560208601610458565b80840191505092915050565b600061034a826103ff565b6103548185610415565b9350610364818560208601610458565b61036d8161048b565b840191505092915050565b6000610385602683610415565b91506103908261049c565b604082019050919050565b60006103a7828461030e565b915081905092915050565b600060208201905081810360008301526103cc818461033f565b905092915050565b600060208201905081810360008301526103ed81610378565b9050919050565b600081519050919050565b600081519050919050565b600081905092915050565b600082825260208201905092915050565b600061043182610438565b9050919050565b600073ffffffffffffffffffffffffffffffffffffffff82169050919050565b60005b8381101561047657808201518184015260208101905061045b565b83811115610485576000848401525b50505050565b6000601f19601f8301169050919050565b7f416464726573733a2064656c65676174652063616c6c20746f206e6f6e2d636f60008201527f6e74726163740000000000000000000000000000000000000000000000000000602082015250565b6104f481610426565b81146104ff57600080fd5b5056fe416464726573733a206c6f772d6c6576656c2064656c65676174652063616c6c206661696c6564a2646970667358221220fc2306d5a12e2e230c96f83ffcbb7f99ccf8203032720341acc4198300f04db964736f6c63430008040033416464726573733a206c6f772d6c6576656c2064656c65676174652063616c6c206661696c6564a2646970667358221220c8052136c1b99467518c764f6219bfab0e08fad8f4626089aa7adb004f1233c964736f6c63430008040033608060405234801561001057600080fd5b506130ba806100206000396000f3fe608060405234801561001057600080fd5b50600436106101005760003560e01c80636352211e11610097578063a22cb46511610066578063a22cb465146102bf578063b88d4fde146102db578063c87b56dd146102f7578063e985e9c51461032757610100565b80636352211e1461022357806370a082311461025357806395d89b41146102835780639f181b5e146102a157610100565b80631c351a9d116100d35780631c351a9d1461019f57806323b872dd146101cf57806342842e0e146101eb5780634cd88b761461020757610100565b806301ffc9a71461010557806306fdde0314610135578063081812fc14610153578063095ea7b314610183575b600080fd5b61011f600480360381019061011a9190611f3a565b610357565b60405161012c9190612455565b60405180910390f35b61013d610439565b60405161014a919061248b565b60405180910390f35b61016d6004803603810190610168919061204c565b6104cb565b60405161017a91906123ee565b60405180910390f35b61019d60048036038101906101989190611efe565b610550565b005b6101b960048036038101906101b49190611f8c565b610668565b6040516101c691906126ed565b60405180910390f35b6101e960048036038101906101e49190611df8565b6106ac565b005b61020560048036038101906102009190611df8565b61070c565b005b610221600480360381019061021c9190611fe0565b61072c565b005b61023d6004803603810190610238919061204c565b6107c4565b60405161024a91906123ee565b60405180910390f35b61026d60048036038101906102689190611d93565b610876565b60405161027a91906126ed565b60405180910390f35b61028b61092e565b604051610298919061248b565b60405180910390f35b6102a96109c0565b6040516102b691906126ed565b60405180910390f35b6102d960048036038101906102d49190611ec2565b6109cc565b005b6102f560048036038101906102f09190611e47565b6109e2565b005b610311600480360381019061030c919061204c565b610a44565b60405161031e919061248b565b60405180910390f35b610341600480360381019061033c9190611dbc565b610b96565b60405161034e9190612455565b60405180910390f35b60007f80ac58cd000000000000000000000000000000000000000000000000000000007bffffffffffffffffffffffffffffffffffffffffffffffffffffffff1916827bffffffffffffffffffffffffffffffffffffffffffffffffffffffff1916148061042257507f5b5e139f000000000000000000000000000000000000000000000000000000007bffffffffffffffffffffffffffffffffffffffffffffffffffffffff1916827bffffffffffffffffffffffffffffffffffffffffffffffffffffffff1916145b80610432575061043182610c2a565b5b9050919050565b60606065805461044890612962565b80601f016020809104026020016040519081016040528092919081815260200182805461047490612962565b80156104c15780601f10610496576101008083540402835291602001916104c1565b820191906000526020600020905b8154815290600101906020018083116104a457829003601f168201915b5050505050905090565b60006104d682610c94565b610515576040517f08c379a000000000000000000000000000000000000000000000000000000000815260040161050c9061264d565b60405180910390fd5b6069600083815260200190815260200160002060009054906101000a900473ffffffffffffffffffffffffffffffffffffffff169050919050565b600061055b826107c4565b90508073ffffffffffffffffffffffffffffffffffffffff168373ffffffffffffffffffffffffffffffffffffffff1614156105cc576040517f08c379a00000000000000000000000000000000000000000000000000000000081526004016105c39061268d565b60405180910390fd5b8073ffffffffffffffffffffffffffffffffffffffff166105eb610d00565b73ffffffffffffffffffffffffffffffffffffffff16148061061a575061061981610614610d00565b610b96565b5b610659576040517f08c379a00000000000000000000000000000000000000000000000000000000081526004016106509061256d565b60405180910390fd5b6106638383610d08565b505050565b600061067460c9610dc1565b6106878261068260c9610dd7565b610de5565b61069a61069460c9610dd7565b84610e03565b6106a460c9610dd7565b905092915050565b6106bd6106b7610d00565b82610e77565b6106fc576040517f08c379a00000000000000000000000000000000000000000000000000000000081526004016106f3906126ad565b60405180910390fd5b610707838383610f55565b505050565b610727838383604051806020016040528060008152506109e2565b505050565b600061073860016111bc565b9050801561075c576001600060016101000a81548160ff0219169083151502179055505b61076683836112ac565b80156107bf5760008060016101000a81548160ff0219169083151502179055507f7f26b83ff96e1f2b6a682f133852f6798a09c465da95921460cefb384740249860016040516107b69190612470565b60405180910390a15b505050565b6000806067600084815260200190815260200160002060009054906101000a900473ffffffffffffffffffffffffffffffffffffffff169050600073ffffffffffffffffffffffffffffffffffffffff168173ffffffffffffffffffffffffffffffffffffffff16141561086d576040517f08c379a0000000000000000000000000000000000000000000000000000000008152600401610864906125ad565b60405180910390fd5b80915050919050565b60008073ffffffffffffffffffffffffffffffffffffffff168273ffffffffffffffffffffffffffffffffffffffff1614156108e7576040517f08c379a00000000000000000000000000000000000000000000000000000000081526004016108de9061258d565b60405180910390fd5b606860008373ffffffffffffffffffffffffffffffffffffffff1673ffffffffffffffffffffffffffffffffffffffff168152602001908152602001600020549050919050565b60606066805461093d90612962565b80601f016020809104026020016040519081016040528092919081815260200182805461096990612962565b80156109b65780601f1061098b576101008083540402835291602001916109b6565b820191906000526020600020905b81548152906001019060200180831161099957829003601f168201915b5050505050905090565b60c98060000154905081565b6109de6109d7610d00565b8383611309565b5050565b6109f36109ed610d00565b83610e77565b610a32576040517f08c379a0000000000000000000000000000000000000000000000000000000008152600401610a29906126ad565b60405180910390fd5b610a3e84848484611476565b50505050565b6060610a4f82610c94565b610a8e576040517f08c379a0000000000000000000000000000000000000000000000000000000008152600401610a859061262d565b60405180910390fd5b6000609760008481526020019081526020016000208054610aae90612962565b80601f0160208091040260200160405190810160405280929190818152602001828054610ada90612962565b8015610b275780601f10610afc57610100808354040283529160200191610b27565b820191906000526020600020905b815481529060010190602001808311610b0a57829003601f168201915b505050505090506000610b386114d2565b9050600081511415610b4e578192505050610b91565b600082511115610b83578082604051602001610b6b9291906123ca565b60405160208183030381529060405292505050610b91565b610b8c846114e9565b925050505b919050565b6000606a60008473ffffffffffffffffffffffffffffffffffffffff1673ffffffffffffffffffffffffffffffffffffffff16815260200190815260200160002060008373ffffffffffffffffffffffffffffffffffffffff1673ffffffffffffffffffffffffffffffffffffffff16815260200190815260200160002060009054906101000a900460ff16905092915050565b60007f01ffc9a7000000000000000000000000000000000000000000000000000000007bffffffffffffffffffffffffffffffffffffffffffffffffffffffff1916827bffffffffffffffffffffffffffffffffffffffffffffffffffffffff1916149050919050565b60008073ffffffffffffffffffffffffffffffffffffffff166067600084815260200190815260200160002060009054906101000a900473ffffffffffffffffffffffffffffffffffffffff1673ffffffffffffffffffffffffffffffffffffffff1614159050919050565b600033905090565b816069600083815260200190815260200160002060006101000a81548173ffffffffffffffffffffffffffffffffffffffff021916908373ffffffffffffffffffffffffffffffffffffffff160217905550808273ffffffffffffffffffffffffffffffffffffffff16610d7b836107c4565b73ffffffffffffffffffffffffffffffffffffffff167f8c5be1e5ebec7d5bd14f71427d1e84f3dd0314c0f7b2291e5b200ac8c7c3b92560405160405180910390a45050565b6001816000016000828254019250508190555050565b600081600001549050919050565b610dff828260405180602001604052806000815250611590565b5050565b610e0c82610c94565b610e4b576040517f08c379a0000000000000000000000000000000000000000000000000000000008152600401610e42906125cd565b60405180910390fd5b80609760008481526020019081526020016000209080519060200190610e72929190611bb7565b505050565b6000610e8282610c94565b610ec1576040517f08c379a0000000000000000000000000000000000000000000000000000000008152600401610eb89061254d565b60405180910390fd5b6000610ecc836107c4565b90508073ffffffffffffffffffffffffffffffffffffffff168473ffffffffffffffffffffffffffffffffffffffff161480610f0e5750610f0d8185610b96565b5b80610f4c57508373ffffffffffffffffffffffffffffffffffffffff16610f34846104cb565b73ffffffffffffffffffffffffffffffffffffffff16145b91505092915050565b8273ffffffffffffffffffffffffffffffffffffffff16610f75826107c4565b73ffffffffffffffffffffffffffffffffffffffff1614610fcb576040517f08c379a0000000000000000000000000000000000000000000000000000000008152600401610fc2906124cd565b60405180910390fd5b600073ffffffffffffffffffffffffffffffffffffffff168273ffffffffffffffffffffffffffffffffffffffff16141561103b576040517f08c379a00000000000000000000000000000000000000000000000000000000081526004016110329061250d565b60405180910390fd5b6110468383836115eb565b611051600082610d08565b6001606860008573ffffffffffffffffffffffffffffffffffffffff1673ffffffffffffffffffffffffffffffffffffffff16815260200190815260200160002060008282546110a19190612859565b925050819055506001606860008473ffffffffffffffffffffffffffffffffffffffff1673ffffffffffffffffffffffffffffffffffffffff16815260200190815260200160002060008282546110f891906127d2565b92505081905550816067600083815260200190815260200160002060006101000a81548173ffffffffffffffffffffffffffffffffffffffff021916908373ffffffffffffffffffffffffffffffffffffffff160217905550808273ffffffffffffffffffffffffffffffffffffffff168473ffffffffffffffffffffffffffffffffffffffff167fddf252ad1be2c89b69c2b068fc378daa952ba7f163c4a11628f55a4df523b3ef60405160405180910390a46111b78383836115f0565b505050565b60008060019054906101000a900460ff16156112335760018260ff161480156111eb57506111e9306115f5565b155b61122a576040517f08c379a0000000000000000000000000000000000000000000000000000000008152600401611221906125ed565b60405180910390fd5b600090506112a7565b8160ff1660008054906101000a900460ff1660ff1610611288576040517f08c379a000000000000000000000000000000000000000000000000000000000815260040161127f906125ed565b60405180910390fd5b816000806101000a81548160ff021916908360ff160217905550600190505b919050565b600060019054906101000a900460ff166112fb576040517f08c379a00000000000000000000000000000000000000000000000000000000081526004016112f2906126cd565b60405180910390fd5b6113058282611618565b5050565b8173ffffffffffffffffffffffffffffffffffffffff168373ffffffffffffffffffffffffffffffffffffffff161415611378576040517f08c379a000000000000000000000000000000000000000000000000000000000815260040161136f9061252d565b60405180910390fd5b80606a60008573ffffffffffffffffffffffffffffffffffffffff1673ffffffffffffffffffffffffffffffffffffffff16815260200190815260200160002060008473ffffffffffffffffffffffffffffffffffffffff1673ffffffffffffffffffffffffffffffffffffffff16815260200190815260200160002060006101000a81548160ff0219169083151502179055508173ffffffffffffffffffffffffffffffffffffffff168373ffffffffffffffffffffffffffffffffffffffff167f17307eab39ab6107e8899845ad3d59bd9653f200f220920489ca2b5937696c31836040516114699190612455565b60405180910390a3505050565b611481848484610f55565b61148d84848484611699565b6114cc576040517f08c379a00000000000000000000000000000000000000000000000000000000081526004016114c3906124ad565b60405180910390fd5b50505050565b606060405180602001604052806000815250905090565b60606114f482610c94565b611533576040517f08c379a000000000000000000000000000000000000000000000000000000000815260040161152a9061266d565b60405180910390fd5b600061153d6114d2565b9050600081511161155d5760405180602001604052806000815250611588565b8061156784611830565b6040516020016115789291906123ca565b6040516020818303038152906040525b915050919050565b61159a83836119dd565b6115a76000848484611699565b6115e6576040517f08c379a00000000000000000000000000000000000000000000000000000000081526004016115dd906124ad565b60405180910390fd5b505050565b505050565b505050565b6000808273ffffffffffffffffffffffffffffffffffffffff163b119050919050565b600060019054906101000a900460ff16611667576040517f08c379a000000000000000000000000000000000000000000000000000000000815260040161165e906126cd565b60405180910390fd5b816065908051906020019061167d929190611bb7565b508060669080519060200190611694929190611bb7565b505050565b60006116ba8473ffffffffffffffffffffffffffffffffffffffff166115f5565b15611823578373ffffffffffffffffffffffffffffffffffffffff1663150b7a026116e3610d00565b8786866040518563ffffffff1660e01b81526004016117059493929190612409565b602060405180830381600087803b15801561171f57600080fd5b505af192505050801561175057506040513d601f19601f8201168201806040525081019061174d9190611f63565b60015b6117d3573d8060008114611780576040519150601f19603f3d011682016040523d82523d6000602084013e611785565b606091505b506000815114156117cb576040517f08c379a00000000000000000000000000000000000000000000000000000000081526004016117c2906124ad565b60405180910390fd5b805181602001fd5b63150b7a0260e01b7bffffffffffffffffffffffffffffffffffffffffffffffffffffffff1916817bffffffffffffffffffffffffffffffffffffffffffffffffffffffff191614915050611828565b600190505b949350505050565b60606000821415611878576040518060400160405280600181526020017f300000000000000000000000000000000000000000000000000000000000000081525090506119d8565b600082905060005b600082146118aa578080611893906129c5565b915050600a826118a39190612828565b9150611880565b60008167ffffffffffffffff8111156118ec577f4e487b7100000000000000000000000000000000000000000000000000000000600052604160045260246000fd5b6040519080825280601f01601f19166020018201604052801561191e5781602001600182028036833780820191505090505b5090505b600085146119d1576001826119379190612859565b9150600a856119469190612a0e565b603061195291906127d2565b60f81b81838151811061198e577f4e487b7100000000000000000000000000000000000000000000000000000000600052603260045260246000fd5b60200101907effffffffffffffffffffffffffffffffffffffffffffffffffffffffffffff1916908160001a905350600a856119ca9190612828565b9450611922565b8093505050505b919050565b600073ffffffffffffffffffffffffffffffffffffffff168273ffffffffffffffffffffffffffffffffffffffff161415611a4d576040517f08c379a0000000000000000000000000000000000000000000000000000000008152600401611a449061260d565b60405180910390fd5b611a5681610c94565b15611a96576040517f08c379a0000000000000000000000000000000000000000000000000000000008152600401611a8d906124ed565b60405180910390fd5b611aa2600083836115eb565b6001606860008473ffffffffffffffffffffffffffffffffffffffff1673ffffffffffffffffffffffffffffffffffffffff1681526020019081526020016000206000828254611af291906127d2565b92505081905550816067600083815260200190815260200160002060006101000a81548173ffffffffffffffffffffffffffffffffffffffff021916908373ffffffffffffffffffffffffffffffffffffffff160217905550808273ffffffffffffffffffffffffffffffffffffffff16600073ffffffffffffffffffffffffffffffffffffffff167fddf252ad1be2c89b69c2b068fc378daa952ba7f163c4a11628f55a4df523b3ef60405160405180910390a4611bb3600083836115f0565b5050565b828054611bc390612962565b90600052602060002090601f016020900481019282611be55760008555611c2c565b82601f10611bfe57805160ff1916838001178555611c2c565b82800160010185558215611c2c579182015b82811115611c2b578251825591602001919060010190611c10565b5b509050611c399190611c3d565b5090565b5b80821115611c56576000816000905550600101611c3e565b5090565b6000611c6d611c688461272d565b612708565b905082815260208101848484011115611c8557600080fd5b611c90848285612920565b509392505050565b6000611cab611ca68461275e565b612708565b905082815260208101848484011115611cc357600080fd5b611cce848285612920565b509392505050565b600081359050611ce581613028565b92915050565b600081359050611cfa8161303f565b92915050565b600081359050611d0f81613056565b92915050565b600081519050611d2481613056565b92915050565b600082601f830112611d3b57600080fd5b8135611d4b848260208601611c5a565b91505092915050565b600082601f830112611d6557600080fd5b8135611d75848260208601611c98565b91505092915050565b600081359050611d8d8161306d565b92915050565b600060208284031215611da557600080fd5b6000611db384828501611cd6565b91505092915050565b60008060408385031215611dcf57600080fd5b6000611ddd85828601611cd6565b9250506020611dee85828601611cd6565b9150509250929050565b600080600060608486031215611e0d57600080fd5b6000611e1b86828701611cd6565b9350506020611e2c86828701611cd6565b9250506040611e3d86828701611d7e565b9150509250925092565b60008060008060808587031215611e5d57600080fd5b6000611e6b87828801611cd6565b9450506020611e7c87828801611cd6565b9350506040611e8d87828801611d7e565b925050606085013567ffffffffffffffff811115611eaa57600080fd5b611eb687828801611d2a565b91505092959194509250565b60008060408385031215611ed557600080fd5b6000611ee385828601611cd6565b9250506020611ef485828601611ceb565b9150509250929050565b60008060408385031215611f1157600080fd5b6000611f1f85828601611cd6565b9250506020611f3085828601611d7e565b9150509250929050565b600060208284031215611f4c57600080fd5b6000611f5a84828501611d00565b91505092915050565b600060208284031215611f7557600080fd5b6000611f8384828501611d15565b91505092915050565b60008060408385031215611f9f57600080fd5b600083013567ffffffffffffffff811115611fb957600080fd5b611fc585828601611d54565b9250506020611fd685828601611cd6565b9150509250929050565b60008060408385031215611ff357600080fd5b600083013567ffffffffffffffff81111561200d57600080fd5b61201985828601611d54565b925050602083013567ffffffffffffffff81111561203657600080fd5b61204285828601611d54565b9150509250929050565b60006020828403121561205e57600080fd5b600061206c84828501611d7e565b91505092915050565b61207e8161288d565b82525050565b61208d8161289f565b82525050565b600061209e8261278f565b6120a881856127a5565b93506120b881856020860161292f565b6120c181612afb565b840191505092915050565b6120d58161290e565b82525050565b60006120e68261279a565b6120f081856127b6565b935061210081856020860161292f565b61210981612afb565b840191505092915050565b600061211f8261279a565b61212981856127c7565b935061213981856020860161292f565b80840191505092915050565b60006121526032836127b6565b915061215d82612b0c565b604082019050919050565b60006121756025836127b6565b915061218082612b5b565b604082019050919050565b6000612198601c836127b6565b91506121a382612baa565b602082019050919050565b60006121bb6024836127b6565b91506121c682612bd3565b604082019050919050565b60006121de6019836127b6565b91506121e982612c22565b602082019050919050565b6000612201602c836127b6565b915061220c82612c4b565b604082019050919050565b60006122246038836127b6565b915061222f82612c9a565b604082019050919050565b6000612247602a836127b6565b915061225282612ce9565b604082019050919050565b600061226a6029836127b6565b915061227582612d38565b604082019050919050565b600061228d602e836127b6565b915061229882612d87565b604082019050919050565b60006122b0602e836127b6565b91506122bb82612dd6565b604082019050919050565b60006122d36020836127b6565b91506122de82612e25565b602082019050919050565b60006122f66031836127b6565b915061230182612e4e565b604082019050919050565b6000612319602c836127b6565b915061232482612e9d565b604082019050919050565b600061233c602f836127b6565b915061234782612eec565b604082019050919050565b600061235f6021836127b6565b915061236a82612f3b565b604082019050919050565b60006123826031836127b6565b915061238d82612f8a565b604082019050919050565b60006123a5602b836127b6565b91506123b082612fd9565b604082019050919050565b6123c4816128f7565b82525050565b60006123d68285612114565b91506123e28284612114565b91508190509392505050565b60006020820190506124036000830184612075565b92915050565b600060808201905061241e6000830187612075565b61242b6020830186612075565b61243860408301856123bb565b818103606083015261244a8184612093565b905095945050505050565b600060208201905061246a6000830184612084565b92915050565b600060208201905061248560008301846120cc565b92915050565b600060208201905081810360008301526124a581846120db565b905092915050565b600060208201905081810360008301526124c681612145565b9050919050565b600060208201905081810360008301526124e681612168565b9050919050565b600060208201905081810360008301526125068161218b565b9050919050565b60006020820190508181036000830152612526816121ae565b9050919050565b60006020820190508181036000830152612546816121d1565b9050919050565b60006020820190508181036000830152612566816121f4565b9050919050565b6000602082019050818103600083015261258681612217565b9050919050565b600060208201905081810360008301526125a68161223a565b9050919050565b600060208201905081810360008301526125c68161225d565b9050919050565b600060208201905081810360008301526125e681612280565b9050919050565b60006020820190508181036000830152612606816122a3565b9050919050565b60006020820190508181036000830152612626816122c6565b9050919050565b60006020820190508181036000830152612646816122e9565b9050919050565b600060208201905081810360008301526126668161230c565b9050919050565b600060208201905081810360008301526126868161232f565b9050919050565b600060208201905081810360008301526126a681612352565b9050919050565b600060208201905081810360008301526126c681612375565b9050919050565b600060208201905081810360008301526126e681612398565b9050919050565b600060208201905061270260008301846123bb565b92915050565b6000612712612723565b905061271e8282612994565b919050565b6000604051905090565b600067ffffffffffffffff82111561274857612747612acc565b5b61275182612afb565b9050602081019050919050565b600067ffffffffffffffff82111561277957612778612acc565b5b61278282612afb565b9050602081019050919050565b600081519050919050565b600081519050919050565b600082825260208201905092915050565b600082825260208201905092915050565b600081905092915050565b60006127dd826128f7565b91506127e8836128f7565b9250827fffffffffffffffffffffffffffffffffffffffffffffffffffffffffffffffff0382111561281d5761281c612a3f565b5b828201905092915050565b6000612833826128f7565b915061283e836128f7565b92508261284e5761284d612a6e565b5b828204905092915050565b6000612864826128f7565b915061286f836128f7565b92508282101561288257612881612a3f565b5b828203905092915050565b6000612898826128d7565b9050919050565b60008115159050919050565b60007fffffffff0000000000000000000000000000000000000000000000000000000082169050919050565b600073ffffffffffffffffffffffffffffffffffffffff82169050919050565b6000819050919050565b600060ff82169050919050565b600061291982612901565b9050919050565b82818337600083830152505050565b60005b8381101561294d578082015181840152602081019050612932565b8381111561295c576000848401525b50505050565b6000600282049050600182168061297a57607f821691505b6020821081141561298e5761298d612a9d565b5b50919050565b61299d82612afb565b810181811067ffffffffffffffff821117156129bc576129bb612acc565b5b80604052505050565b60006129d0826128f7565b91507fffffffffffffffffffffffffffffffffffffffffffffffffffffffffffffffff821415612a0357612a02612a3f565b5b600182019050919050565b6000612a19826128f7565b9150612a24836128f7565b925082612a3457612a33612a6e565b5b828206905092915050565b7f4e487b7100000000000000000000000000000000000000000000000000000000600052601160045260246000fd5b7f4e487b7100000000000000000000000000000000000000000000000000000000600052601260045260246000fd5b7f4e487b7100000000000000000000000000000000000000000000000000000000600052602260045260246000fd5b7f4e487b7100000000000000000000000000000000000000000000000000000000600052604160045260246000fd5b6000601f19601f8301169050919050565b7f4552433732313a207472616e7366657220746f206e6f6e20455243373231526560008201527f63656976657220696d706c656d656e7465720000000000000000000000000000602082015250565b7f4552433732313a207472616e736665722066726f6d20696e636f72726563742060008201527f6f776e6572000000000000000000000000000000000000000000000000000000602082015250565b7f4552433732313a20746f6b656e20616c7265616479206d696e74656400000000600082015250565b7f4552433732313a207472616e7366657220746f20746865207a65726f2061646460008201527f7265737300000000000000000000000000000000000000000000000000000000602082015250565b7f4552433732313a20617070726f766520746f2063616c6c657200000000000000600082015250565b7f4552433732313a206f70657261746f7220717565727920666f72206e6f6e657860008201527f697374656e7420746f6b656e0000000000000000000000000000000000000000602082015250565b7f4552433732313a20617070726f76652063616c6c6572206973206e6f74206f7760008201527f6e6572206e6f7220617070726f76656420666f7220616c6c0000000000000000602082015250565b7f4552433732313a2062616c616e636520717565727920666f7220746865207a6560008201527f726f206164647265737300000000000000000000000000000000000000000000602082015250565b7f4552433732313a206f776e657220717565727920666f72206e6f6e657869737460008201527f656e7420746f6b656e0000000000000000000000000000000000000000000000602082015250565b7f45524337323155524953746f726167653a2055524920736574206f66206e6f6e60008201527f6578697374656e7420746f6b656e000000000000000000000000000000000000602082015250565b7f496e697469616c697a61626c653a20636f6e747261637420697320616c72656160008201527f647920696e697469616c697a6564000000000000000000000000000000000000602082015250565b7f4552433732313a206d696e7420746f20746865207a65726f2061646472657373600082015250565b7f45524337323155524953746f726167653a2055524920717565727920666f722060008201527f6e6f6e6578697374656e7420746f6b656e000000000000000000000000000000602082015250565b7f4552433732313a20617070726f76656420717565727920666f72206e6f6e657860008201527f697374656e7420746f6b656e0000000000000000000000000000000000000000602082015250565b7f4552433732314d657461646174613a2055524920717565727920666f72206e6f60008201527f6e6578697374656e7420746f6b656e0000000000000000000000000000000000602082015250565b7f4552433732313a20617070726f76616c20746f2063757272656e74206f776e6560008201527f7200000000000000000000000000000000000000000000000000000000000000602082015250565b7f4552433732313a207472616e736665722063616c6c6572206973206e6f74206f60008201527f776e6572206e6f7220617070726f766564000000000000000000000000000000602082015250565b7f496e697469616c697a61626c653a20636f6e7472616374206973206e6f74206960008201527f6e697469616c697a696e67000000000000000000000000000000000000000000602082015250565b6130318161288d565b811461303c57600080fd5b50565b6130488161289f565b811461305357600080fd5b50565b61305f816128ab565b811461306a57600080fd5b50565b613076816128f7565b811461308157600080fd5b5056fea26469706673582212204862b67eaa6fd027039e3e63df23a3412ed20126bc8a09834782416b323c499c64736f6c6343000804003360a060405234801561001057600080fd5b5060405161150c38038061150c833981810160405281019061003291906101ed565b61004e6100436100ff60201b60201c565b61010760201b60201c565b8060405161005b906101cb565b6100659190610225565b604051809103906000f080158015610081573d6000803e3d6000fd5b5073ffffffffffffffffffffffffffffffffffffffff1660808173ffffffffffffffffffffffffffffffffffffffff1660601b8152505080600160006101000a81548173ffffffffffffffffffffffffffffffffffffffff021916908373ffffffffffffffffffffffffffffffffffffffff16021790555050610289565b600033905090565b60008060009054906101000a900473ffffffffffffffffffffffffffffffffffffffff169050816000806101000a81548173ffffffffffffffffffffffffffffffffffffffff021916908373ffffffffffffffffffffffffffffffffffffffff1602179055508173ffffffffffffffffffffffffffffffffffffffff168173ffffffffffffffffffffffffffffffffffffffff167f8be0079c531659141344cd1fd0a4f28419497f9722a3daafe3b4186f6b6457e060405160405180910390a35050565b610a9c80610a7083390190565b6000815190506101e781610272565b92915050565b6000602082840312156101ff57600080fd5b600061020d848285016101d8565b91505092915050565b61021f81610240565b82525050565b600060208201905061023a6000830184610216565b92915050565b600061024b82610252565b9050919050565b600073ffffffffffffffffffffffffffffffffffffffff82169050919050565b61027b81610240565b811461028657600080fd5b50565b60805160601c6107c26102ae60003960008181610181015261032901526107c26000f3fe608060405234801561001057600080fd5b50600436106100625760003560e01c8063025b22bc146100675780635c60da1b14610083578063715018a6146100a15780638da5cb5b146100ab578063d8bd5c29146100c9578063f2fde38b146100e7575b600080fd5b610081600480360381019061007c91906105b8565b610103565b005b61008b61024e565b604051610098919061065f565b60405180910390f35b6100a9610274565b005b6100b36102fc565b6040516100c0919061065f565b60405180910390f35b6100d1610325565b6040516100de919061065f565b60405180910390f35b61010160048036038101906100fc91906105b8565b6103ca565b005b61010b6104c2565b73ffffffffffffffffffffffffffffffffffffffff166101296102fc565b73ffffffffffffffffffffffffffffffffffffffff161461017f576040517f08c379a00000000000000000000000000000000000000000000000000000000081526004016101769061069a565b60405180910390fd5b7f000000000000000000000000000000000000000000000000000000000000000073ffffffffffffffffffffffffffffffffffffffff16633659cfe6826040518263ffffffff1660e01b81526004016101d8919061065f565b600060405180830381600087803b1580156101f257600080fd5b505af1158015610206573d6000803e3d6000fd5b5050505080600160006101000a81548173ffffffffffffffffffffffffffffffffffffffff021916908373ffffffffffffffffffffffffffffffffffffffff16021790555050565b600160009054906101000a900473ffffffffffffffffffffffffffffffffffffffff1681565b61027c6104c2565b73ffffffffffffffffffffffffffffffffffffffff1661029a6102fc565b73ffffffffffffffffffffffffffffffffffffffff16146102f0576040517f08c379a00000000000000000000000000000000000000000000000000000000081526004016102e79061069a565b60405180910390fd5b6102fa60006104ca565b565b60008060009054906101000a900473ffffffffffffffffffffffffffffffffffffffff16905090565b60007f000000000000000000000000000000000000000000000000000000000000000073ffffffffffffffffffffffffffffffffffffffff16635c60da1b6040518163ffffffff1660e01b815260040160206040518083038186803b15801561038d57600080fd5b505afa1580156103a1573d6000803e3d6000fd5b505050506040513d601f19601f820116820180604052508101906103c591906105e1565b905090565b6103d26104c2565b73ffffffffffffffffffffffffffffffffffffffff166103f06102fc565b73ffffffffffffffffffffffffffffffffffffffff1614610446576040517f08c379a000000000000000000000000000000000000000000000000000000000815260040161043d9061069a565b60405180910390fd5b600073ffffffffffffffffffffffffffffffffffffffff168173ffffffffffffffffffffffffffffffffffffffff1614156104b6576040517f08c379a00000000000000000000000000000000000000000000000000000000081526004016104ad9061067a565b60405180910390fd5b6104bf816104ca565b50565b600033905090565b60008060009054906101000a900473ffffffffffffffffffffffffffffffffffffffff169050816000806101000a81548173ffffffffffffffffffffffffffffffffffffffff021916908373ffffffffffffffffffffffffffffffffffffffff1602179055508173ffffffffffffffffffffffffffffffffffffffff168173ffffffffffffffffffffffffffffffffffffffff167f8be0079c531659141344cd1fd0a4f28419497f9722a3daafe3b4186f6b6457e060405160405180910390a35050565b60008135905061059d81610775565b92915050565b6000815190506105b281610775565b92915050565b6000602082840312156105ca57600080fd5b60006105d88482850161058e565b91505092915050565b6000602082840312156105f357600080fd5b6000610601848285016105a3565b91505092915050565b610613816106cb565b82525050565b60006106266026836106ba565b9150610631826106fd565b604082019050919050565b60006106496020836106ba565b91506106548261074c565b602082019050919050565b6000602082019050610674600083018461060a565b92915050565b6000602082019050818103600083015261069381610619565b9050919050565b600060208201905081810360008301526106b38161063c565b9050919050565b600082825260208201905092915050565b60006106d6826106dd565b9050919050565b600073ffffffffffffffffffffffffffffffffffffffff82169050919050565b7f4f776e61626c653a206e6577206f776e657220697320746865207a65726f206160008201527f6464726573730000000000000000000000000000000000000000000000000000602082015250565b7f4f776e61626c653a2063616c6c6572206973206e6f7420746865206f776e6572600082015250565b61077e816106cb565b811461078957600080fd5b5056fea2646970667358221220b784b2f3ee424341036ff4788f06bb5fb45beea4119867efbc75969b05d8cb9464736f6c63430008040033608060405234801561001057600080fd5b50604051610a9c380380610a9c833981810160405281019061003291906101fd565b61004e61004361006360201b60201c565b61006b60201b60201c565b61005d8161012f60201b60201c565b50610312565b600033905090565b60008060009054906101000a900473ffffffffffffffffffffffffffffffffffffffff169050816000806101000a81548173ffffffffffffffffffffffffffffffffffffffff021916908373ffffffffffffffffffffffffffffffffffffffff1602179055508173ffffffffffffffffffffffffffffffffffffffff168173ffffffffffffffffffffffffffffffffffffffff167f8be0079c531659141344cd1fd0a4f28419497f9722a3daafe3b4186f6b6457e060405160405180910390a35050565b610142816101c560201b6103781760201c565b610181576040517f08c379a000000000000000000000000000000000000000000000000000000000815260040161017890610249565b60405180910390fd5b80600160006101000a81548173ffffffffffffffffffffffffffffffffffffffff021916908373ffffffffffffffffffffffffffffffffffffffff16021790555050565b6000808273ffffffffffffffffffffffffffffffffffffffff163b119050919050565b6000815190506101f7816102fb565b92915050565b60006020828403121561020f57600080fd5b600061021d848285016101e8565b91505092915050565b6000610233603383610269565b915061023e826102ac565b604082019050919050565b6000602082019050818103600083015261026281610226565b9050919050565b600082825260208201905092915050565b60006102858261028c565b9050919050565b600073ffffffffffffffffffffffffffffffffffffffff82169050919050565b7f5570677261646561626c65426561636f6e3a20696d706c656d656e746174696f60008201527f6e206973206e6f74206120636f6e747261637400000000000000000000000000602082015250565b6103048161027a565b811461030f57600080fd5b50565b61077b806103216000396000f3fe608060405234801561001057600080fd5b50600436106100575760003560e01c80633659cfe61461005c5780635c60da1b14610078578063715018a6146100965780638da5cb5b146100a0578063f2fde38b146100be575b600080fd5b61007660048036038101906100719190610508565b6100da565b005b6100806101a5565b60405161008d91906105a9565b60405180910390f35b61009e6101cf565b005b6100a8610257565b6040516100b591906105a9565b60405180910390f35b6100d860048036038101906100d39190610508565b610280565b005b6100e261039b565b73ffffffffffffffffffffffffffffffffffffffff16610100610257565b73ffffffffffffffffffffffffffffffffffffffff1614610156576040517f08c379a000000000000000000000000000000000000000000000000000000000815260040161014d90610604565b60405180910390fd5b61015f816103a3565b8073ffffffffffffffffffffffffffffffffffffffff167fbc7cd75a20ee27fd9adebab32041f755214dbc6bffa90cc0225b39da2e5c2d3b60405160405180910390a250565b6000600160009054906101000a900473ffffffffffffffffffffffffffffffffffffffff16905090565b6101d761039b565b73ffffffffffffffffffffffffffffffffffffffff166101f5610257565b73ffffffffffffffffffffffffffffffffffffffff161461024b576040517f08c379a000000000000000000000000000000000000000000000000000000000815260040161024290610604565b60405180910390fd5b610255600061042f565b565b60008060009054906101000a900473ffffffffffffffffffffffffffffffffffffffff16905090565b61028861039b565b73ffffffffffffffffffffffffffffffffffffffff166102a6610257565b73ffffffffffffffffffffffffffffffffffffffff16146102fc576040517f08c379a00000000000000000000000000000000000000000000000000000000081526004016102f390610604565b60405180910390fd5b600073ffffffffffffffffffffffffffffffffffffffff168173ffffffffffffffffffffffffffffffffffffffff16141561036c576040517f08c379a0000000000000000000000000000000000000000000000000000000008152600401610363906105c4565b60405180910390fd5b6103758161042f565b50565b6000808273ffffffffffffffffffffffffffffffffffffffff163b119050919050565b600033905090565b6103ac81610378565b6103eb576040517f08c379a00000000000000000000000000000000000000000000000000000000081526004016103e2906105e4565b60405180910390fd5b80600160006101000a81548173ffffffffffffffffffffffffffffffffffffffff021916908373ffffffffffffffffffffffffffffffffffffffff16021790555050565b60008060009054906101000a900473ffffffffffffffffffffffffffffffffffffffff169050816000806101000a81548173ffffffffffffffffffffffffffffffffffffffff021916908373ffffffffffffffffffffffffffffffffffffffff1602179055508173ffffffffffffffffffffffffffffffffffffffff168173ffffffffffffffffffffffffffffffffffffffff167f8be0079c531659141344cd1fd0a4f28419497f9722a3daafe3b4186f6b6457e060405160405180910390a35050565b6000813590506105028161072e565b92915050565b60006020828403121561051a57600080fd5b6000610528848285016104f3565b91505092915050565b61053a81610635565b82525050565b600061054d602683610624565b915061055882610667565b604082019050919050565b6000610570603383610624565b915061057b826106b6565b604082019050919050565b6000610593602083610624565b915061059e82610705565b602082019050919050565b60006020820190506105be6000830184610531565b92915050565b600060208201905081810360008301526105dd81610540565b9050919050565b600060208201905081810360008301526105fd81610563565b9050919050565b6000602082019050818103600083015261061d81610586565b9050919050565b600082825260208201905092915050565b600061064082610647565b9050919050565b600073ffffffffffffffffffffffffffffffffffffffff82169050919050565b7f4f776e61626c653a206e6577206f776e657220697320746865207a65726f206160008201527f6464726573730000000000000000000000000000000000000000000000000000602082015250565b7f5570677261646561626c65426561636f6e3a20696d706c656d656e746174696f60008201527f6e206973206e6f74206120636f6e747261637400000000000000000000000000602082015250565b7f4f776e61626c653a2063616c6c6572206973206e6f7420746865206f776e6572600082015250565b61073781610635565b811461074257600080fd5b5056fea26469706673582212206e49556c0fcb4b0305d27d09c313d11c9cf77004a3a1f1f7165b023cbffc727c64736f6c63430008040033",
  "linkReferences": {},
  "deployedLinkReferences": {}
}