{
  "_format": "hh-sol-artifact-1",
  "contractName": "NFTBeacon",
  "sourceName": "contracts/NFTBeacon.sol",
  "abi": [
    {
      "inputs": [
        {
          "internalType": "address",
          "name": "_implementation",
          "type": "address"
        }
      ],
      "stateMutability": "nonpayable",
      "type": "constructor"
    },
    {
      "anonymous": false,
      "inputs": [
        {
          "indexed": true,
          "internalType": "address",
          "name": "previousOwner",
          "type": "address"
        },
        {
          "indexed": true,
          "internalType": "address",
          "name": "newOwner",
          "type": "address"
        }
      ],
      "name": "OwnershipTransferred",
      "type": "event"
    },
    {
      "inputs": [],
      "name": "currentImplementation",
      "outputs": [
        {
          "internalType": "address",
          "name": "",
          "type": "address"
        }
      ],
      "stateMutability": "view",
      "type": "function"
    },
    {
      "inputs": [],
      "name": "implementation",
      "outputs": [
        {
          "internalType": "address",
          "name": "",
          "type": "address"
        }
      ],
      "stateMutability": "view",
      "type": "function"
    },
    {
      "inputs": [],
      "name": "owner",
      "outputs": [
        {
          "internalType": "address",
          "name": "",
          "type": "address"
        }
      ],
      "stateMutability": "view",
      "type": "function"
    },
    {
      "inputs": [],
      "name": "renounceOwnership",
      "outputs": [],
      "stateMutability": "nonpayable",
      "type": "function"
    },
    {
      "inputs": [
        {
          "internalType": "address",
          "name": "newOwner",
          "type": "address"
        }
      ],
      "name": "transferOwnership",
      "outputs": [],
      "stateMutability": "nonpayable",
      "type": "function"
    },
    {
      "inputs": [
        {
          "internalType": "address",
          "name": "_newImplementation",
          "type": "address"
        }
      ],
      "name": "updateImplementation",
      "outputs": [],
      "stateMutability": "nonpayable",
      "type": "function"
    }
  ],
  "bytecode": "0x60a060405234801561001057600080fd5b5060405161150c38038061150c833981810160405281019061003291906101ed565b61004e6100436100ff60201b60201c565b61010760201b60201c565b8060405161005b906101cb565b6100659190610225565b604051809103906000f080158015610081573d6000803e3d6000fd5b5073ffffffffffffffffffffffffffffffffffffffff1660808173ffffffffffffffffffffffffffffffffffffffff1660601b8152505080600160006101000a81548173ffffffffffffffffffffffffffffffffffffffff021916908373ffffffffffffffffffffffffffffffffffffffff16021790555050610289565b600033905090565b60008060009054906101000a900473ffffffffffffffffffffffffffffffffffffffff169050816000806101000a81548173ffffffffffffffffffffffffffffffffffffffff021916908373ffffffffffffffffffffffffffffffffffffffff1602179055508173ffffffffffffffffffffffffffffffffffffffff168173ffffffffffffffffffffffffffffffffffffffff167f8be0079c531659141344cd1fd0a4f28419497f9722a3daafe3b4186f6b6457e060405160405180910390a35050565b610a9c80610a7083390190565b6000815190506101e781610272565b92915050565b6000602082840312156101ff57600080fd5b600061020d848285016101d8565b91505092915050565b61021f81610240565b82525050565b600060208201905061023a6000830184610216565b92915050565b600061024b82610252565b9050919050565b600073ffffffffffffffffffffffffffffffffffffffff82169050919050565b61027b81610240565b811461028657600080fd5b50565b60805160601c6107c26102ae60003960008181610181015261032901526107c26000f3fe608060405234801561001057600080fd5b50600436106100625760003560e01c8063025b22bc146100675780635c60da1b14610083578063715018a6146100a15780638da5cb5b146100ab578063d8bd5c29146100c9578063f2fde38b146100e7575b600080fd5b610081600480360381019061007c91906105b8565b610103565b005b61008b61024e565b604051610098919061065f565b60405180910390f35b6100a9610274565b005b6100b36102fc565b6040516100c0919061065f565b60405180910390f35b6100d1610325565b6040516100de919061065f565b60405180910390f35b61010160048036038101906100fc91906105b8565b6103ca565b005b61010b6104c2565b73ffffffffffffffffffffffffffffffffffffffff166101296102fc565b73ffffffffffffffffffffffffffffffffffffffff161461017f576040517f08c379a00000000000000000000000000000000000000000000000000000000081526004016101769061069a565b60405180910390fd5b7f000000000000000000000000000000000000000000000000000000000000000073ffffffffffffffffffffffffffffffffffffffff16633659cfe6826040518263ffffffff1660e01b81526004016101d8919061065f565b600060405180830381600087803b1580156101f257600080fd5b505af1158015610206573d6000803e3d6000fd5b5050505080600160006101000a81548173ffffffffffffffffffffffffffffffffffffffff021916908373ffffffffffffffffffffffffffffffffffffffff16021790555050565b600160009054906101000a900473ffffffffffffffffffffffffffffffffffffffff1681565b61027c6104c2565b73ffffffffffffffffffffffffffffffffffffffff1661029a6102fc565b73ffffffffffffffffffffffffffffffffffffffff16146102f0576040517f08c379a00000000000000000000000000000000000000000000000000000000081526004016102e79061069a565b60405180910390fd5b6102fa60006104ca565b565b60008060009054906101000a900473ffffffffffffffffffffffffffffffffffffffff16905090565b60007f000000000000000000000000000000000000000000000000000000000000000073ffffffffffffffffffffffffffffffffffffffff16635c60da1b6040518163ffffffff1660e01b815260040160206040518083038186803b15801561038d57600080fd5b505afa1580156103a1573d6000803e3d6000fd5b505050506040513d601f19601f820116820180604052508101906103c591906105e1565b905090565b6103d26104c2565b73ffffffffffffffffffffffffffffffffffffffff166103f06102fc565b73ffffffffffffffffffffffffffffffffffffffff1614610446576040517f08c379a000000000000000000000000000000000000000000000000000000000815260040161043d9061069a565b60405180910390fd5b600073ffffffffffffffffffffffffffffffffffffffff168173ffffffffffffffffffffffffffffffffffffffff1614156104b6576040517f08c379a00000000000000000000000000000000000000000000000000000000081526004016104ad9061067a565b60405180910390fd5b6104bf816104ca565b50565b600033905090565b60008060009054906101000a900473ffffffffffffffffffffffffffffffffffffffff169050816000806101000a81548173ffffffffffffffffffffffffffffffffffffffff021916908373ffffffffffffffffffffffffffffffffffffffff1602179055508173ffffffffffffffffffffffffffffffffffffffff168173ffffffffffffffffffffffffffffffffffffffff167f8be0079c531659141344cd1fd0a4f28419497f9722a3daafe3b4186f6b6457e060405160405180910390a35050565b60008135905061059d81610775565b92915050565b6000815190506105b281610775565b92915050565b6000602082840312156105ca57600080fd5b60006105d88482850161058e565b91505092915050565b6000602082840312156105f357600080fd5b6000610601848285016105a3565b91505092915050565b610613816106cb565b82525050565b60006106266026836106ba565b9150610631826106fd565b604082019050919050565b60006106496020836106ba565b91506106548261074c565b602082019050919050565b6000602082019050610674600083018461060a565b92915050565b6000602082019050818103600083015261069381610619565b9050919050565b600060208201905081810360008301526106b38161063c565b9050919050565b600082825260208201905092915050565b60006106d6826106dd565b9050919050565b600073ffffffffffffffffffffffffffffffffffffffff82169050919050565b7f4f776e61626c653a206e6577206f776e657220697320746865207a65726f206160008201527f6464726573730000000000000000000000000000000000000000000000000000602082015250565b7f4f776e61626c653a2063616c6c6572206973206e6f7420746865206f776e6572600082015250565b61077e816106cb565b811461078957600080fd5b5056fea2646970667358221220b784b2f3ee424341036ff4788f06bb5fb45beea4119867efbc75969b05d8cb9464736f6c63430008040033608060405234801561001057600080fd5b50604051610a9c380380610a9c833981810160405281019061003291906101fd565b61004e61004361006360201b60201c565b61006b60201b60201c565b61005d8161012f60201b60201c565b50610312565b600033905090565b60008060009054906101000a900473ffffffffffffffffffffffffffffffffffffffff169050816000806101000a81548173ffffffffffffffffffffffffffffffffffffffff021916908373ffffffffffffffffffffffffffffffffffffffff1602179055508173ffffffffffffffffffffffffffffffffffffffff168173ffffffffffffffffffffffffffffffffffffffff167f8be0079c531659141344cd1fd0a4f28419497f9722a3daafe3b4186f6b6457e060405160405180910390a35050565b610142816101c560201b6103781760201c565b610181576040517f08c379a000000000000000000000000000000000000000000000000000000000815260040161017890610249565b60405180910390fd5b80600160006101000a81548173ffffffffffffffffffffffffffffffffffffffff021916908373ffffffffffffffffffffffffffffffffffffffff16021790555050565b6000808273ffffffffffffffffffffffffffffffffffffffff163b119050919050565b6000815190506101f7816102fb565b92915050565b60006020828403121561020f57600080fd5b600061021d848285016101e8565b91505092915050565b6000610233603383610269565b915061023e826102ac565b604082019050919050565b6000602082019050818103600083015261026281610226565b9050919050565b600082825260208201905092915050565b60006102858261028c565b9050919050565b600073ffffffffffffffffffffffffffffffffffffffff82169050919050565b7f5570677261646561626c65426561636f6e3a20696d706c656d656e746174696f60008201527f6e206973206e6f74206120636f6e747261637400000000000000000000000000602082015250565b6103048161027a565b811461030f57600080fd5b50565b61077b806103216000396000f3fe608060405234801561001057600080fd5b50600436106100575760003560e01c80633659cfe61461005c5780635c60da1b14610078578063715018a6146100965780638da5cb5b146100a0578063f2fde38b146100be575b600080fd5b61007660048036038101906100719190610508565b6100da565b005b6100806101a5565b60405161008d91906105a9565b60405180910390f35b61009e6101cf565b005b6100a8610257565b6040516100b591906105a9565b60405180910390f35b6100d860048036038101906100d39190610508565b610280565b005b6100e261039b565b73ffffffffffffffffffffffffffffffffffffffff16610100610257565b73ffffffffffffffffffffffffffffffffffffffff1614610156576040517f08c379a000000000000000000000000000000000000000000000000000000000815260040161014d90610604565b60405180910390fd5b61015f816103a3565b8073ffffffffffffffffffffffffffffffffffffffff167fbc7cd75a20ee27fd9adebab32041f755214dbc6bffa90cc0225b39da2e5c2d3b60405160405180910390a250565b6000600160009054906101000a900473ffffffffffffffffffffffffffffffffffffffff16905090565b6101d761039b565b73ffffffffffffffffffffffffffffffffffffffff166101f5610257565b73ffffffffffffffffffffffffffffffffffffffff161461024b576040517f08c379a000000000000000000000000000000000000000000000000000000000815260040161024290610604565b60405180910390fd5b610255600061042f565b565b60008060009054906101000a900473ffffffffffffffffffffffffffffffffffffffff16905090565b61028861039b565b73ffffffffffffffffffffffffffffffffffffffff166102a6610257565b73ffffffffffffffffffffffffffffffffffffffff16146102fc576040517f08c379a00000000000000000000000000000000000000000000000000000000081526004016102f390610604565b60405180910390fd5b600073ffffffffffffffffffffffffffffffffffffffff168173ffffffffffffffffffffffffffffffffffffffff16141561036c576040517f08c379a0000000000000000000000000000000000000000000000000000000008152600401610363906105c4565b60405180910390fd5b6103758161042f565b50565b6000808273ffffffffffffffffffffffffffffffffffffffff163b119050919050565b600033905090565b6103ac81610378565b6103eb576040517f08c379a00000000000000000000000000000000000000000000000000000000081526004016103e2906105e4565b60405180910390fd5b80600160006101000a81548173ffffffffffffffffffffffffffffffffffffffff021916908373ffffffffffffffffffffffffffffffffffffffff16021790555050565b60008060009054906101000a900473ffffffffffffffffffffffffffffffffffffffff169050816000806101000a81548173ffffffffffffffffffffffffffffffffffffffff021916908373ffffffffffffffffffffffffffffffffffffffff1602179055508173ffffffffffffffffffffffffffffffffffffffff168173ffffffffffffffffffffffffffffffffffffffff167f8be0079c531659141344cd1fd0a4f28419497f9722a3daafe3b4186f6b6457e060405160405180910390a35050565b6000813590506105028161072e565b92915050565b60006020828403121561051a57600080fd5b6000610528848285016104f3565b91505092915050565b61053a81610635565b82525050565b600061054d602683610624565b915061055882610667565b604082019050919050565b6000610570603383610624565b915061057b826106b6565b604082019050919050565b6000610593602083610624565b915061059e82610705565b602082019050919050565b60006020820190506105be6000830184610531565b92915050565b600060208201905081810360008301526105dd81610540565b9050919050565b600060208201905081810360008301526105fd81610563565b9050919050565b6000602082019050818103600083015261061d81610586565b9050919050565b600082825260208201905092915050565b600061064082610647565b9050919050565b600073ffffffffffffffffffffffffffffffffffffffff82169050919050565b7f4f776e61626c653a206e6577206f776e657220697320746865207a65726f206160008201527f6464726573730000000000000000000000000000000000000000000000000000602082015250565b7f5570677261646561626c65426561636f6e3a20696d706c656d656e746174696f60008201527f6e206973206e6f74206120636f6e747261637400000000000000000000000000602082015250565b7f4f776e61626c653a2063616c6c6572206973206e6f7420746865206f776e6572600082015250565b61073781610635565b811461074257600080fd5b5056fea26469706673582212206e49556c0fcb4b0305d27d09c313d11c9cf77004a3a1f1f7165b023cbffc727c64736f6c63430008040033",
  "linkReferences": {},
  "deployedLinkReferences": {}
}